:020000040000FA
:06000000CEEF01F012003A
:020006000000F8
:08000800720ED36ED3A4FED7E3
:1000100012000F013A6B8B6A946A3B6B8C6A956A8B
:100020001200D9CFE6FFE1CFD9FF8B98FE0EDB504F
:100030008C6E8B8A020EE66EAEEC01F0E5528B9A66
:10004000020EE66EAEEC01F0E552E552E7CFD9FFC5
:1000500012008B9A8B988C6A956A946A3C0EE66EB5
:10006000E0DFE5520C0EE66EDCDFE552010EE66ED7
:10007000D8DFE552070EE66ED4DFE552010EE66EDC
:10008000D0DFE552020EE66EAEEC01F0E552800ED6
:10009000E66EC7DFE5521200D9CFE6FFE1CFD9FF08
:1000A0008B88FE0EDB508C6E8B8A020EE66EAEECF9
:1000B00001F0E5528B9A020EE66EAEEC01F0E552CD
:1000C000E552E7CFD9FF1200D9CFE6FFE1CFD9FF44
:1000D000FD0EDBCFE9FFFE0EDBCFEAFFEF500EE0B7
:1000E000FD0EDBCFE9FFDB2AFE0EDBCFEAFF01E3EB
:1000F000DB2AEF50E66ED0DFE552EAD7E552E7CFD4
:10010000D9FF1200D9CFE6FFE1CFD9FF440EE12697
:10011000D9CFE9FFDACFEAFF410EEE6E730EEE6E35
:10012000770EEE6E690EEE6E6E0EEE6E200EEE6EB9
:10013000530EEE6E720EEE6E650EEE6EEE6E720E7B
:10014000EE6E610EEE6E6A0EEE6EEE6AD9500E0F16
:10015000E96EDACFEAFF610EEE6E730EEE6E770E89
:10016000EE6E690EEE6E6E0EEE6E730EEE6E720E2B
:10017000EE6E650EEE6EEE6E720EEE6E610EEE6E51
:100180006A0EEE6E390EEE6E360EEE6E400EEE6EAE
:10019000670EEE6E6D0EEE6E610EEE6E690EEE6E19
:1001A0006C0EEE6EEE6AD950230FE96EDACFEAFFDD
:1001B000280EEE6E350EEE6E340EEE6E380EEE6ECE
:1001C000290EEE6E200EEE6E380EEE6EEE6E310ED5
:1001D000EE6E2D0EEE6E320EEE6E310EEE6E340EB3
:1001E000EE6E320EEE6EEE6AD950320FE96EDACF55
:1001F000EAFF430EEE6E6F0EEE6E700EEE6E790E2F
:10020000EE6E720EEE6E690EEE6E670EEE6E680E9C
:10021000EE6E740EEE6E200EEE6E280EEE6E430E37
:10022000EE6E290EEE6EEE6AD950400FE96EDACF0F
:10023000EAFF310EEE6EEE6AEE6A430EDB6AE4DE32
:10024000E8DE07DF800EE66EECDEE552D9CFE6FF92
:10025000DACFE6FF39DFE552E552C00EE66EE1DEA9
:10026000E552D9500E0FE66E000EDA20E66E2CDF56
:10027000E552E552940EE66ED4DEE552D950230FD6
:10028000E66E000EDA20E66E1FDFE552E552D40E70
:10029000E66EC7DEE552D950320FE66E000EDA2068
:1002A000E66E12DFE552E552CDD7440EE15C02E284
:0E02B000E16AE552E16EE552E7CFD9FF120098
:0202BE00060E2A
:1002C000F66E000EF76E000EF86E00010900F55094
:1002D000656F0900F550666F03E1656701D03DD099
:1002E0000900F550606F0900F550616F0900F55085
:1002F000626F09000900F550E96E0900F550EA6ED9
:10030000090009000900F550636F0900F550646F9A
:1003100009000900F6CF67F0F7CF68F0F8CF69F071
:1003200060C0F6FF61C0F7FF62C0F8FF00016353D1
:1003300002E1645307E00900F550EE6E6307F8E24E
:100340006407F9D767C0F6FF68C0F7FF69C0F8FF18
:0C03500000016507000E665BBFD71200BD
:04035C00FF0EE3505D
:10036000026E480E01D04C0EE76EE72EFED7E76A0C
:0C037000E72EFED7022EF7D70000120087
:04037C00000EF36E0E
:1003800000EE00F0060E01D81200EA6002D0EE6A1C
:0C039000FCD7F350E9601200EE6AFCD7C5
:04039C0015EE00F06A
:1003A00025EE00F0F86A019C5FEC01F0DCEC01F056
:0803B00082EC00F0FBD7120003
:0203B800120031
:020000040030CA
:0100010028D6
:0100020003FA
:010003003CC0
:01000500BD3D
:010006008178
:00000001FF
